{
  "contractName": "RastreamentoMedicamentos",
  "abi": [
    {
      "inputs": [],
      "stateMutability": "nonpayable",
      "type": "constructor"
    },
    {
      "anonymous": false,
      "inputs": [
        {
          "indexed": true,
          "internalType": "address",
          "name": "adminAddress",
          "type": "address"
        },
        {
          "indexed": false,
          "internalType": "string",
          "name": "nomeCompleto",
          "type": "string"
        }
      ],
      "name": "AdministradorCadastrado",
      "type": "event"
    },
    {
      "anonymous": false,
      "inputs": [
        {
          "indexed": false,
          "internalType": "string",
          "name": "codigoProduto",
          "type": "string"
        },
        {
          "indexed": false,
          "internalType": "string",
          "name": "nomeComercial",
          "type": "string"
        }
      ],
      "name": "MedicamentoCadastrado",
      "type": "event"
    },
    {
      "anonymous": false,
      "inputs": [
        {
          "indexed": false,
          "internalType": "string",
          "name": "codigoRastreamento",
          "type": "string"
        },
        {
          "indexed": false,
          "internalType": "string",
          "name": "status",
          "type": "string"
        },
        {
          "indexed": false,
          "internalType": "string",
          "name": "localizacao",
          "type": "string"
        },
        {
          "indexed": false,
          "internalType": "uint256",
          "name": "timestamp",
          "type": "uint256"
        }
      ],
      "name": "RastreamentoAtualizado",
      "type": "event"
    },
    {
      "inputs": [
        {
          "internalType": "address",
          "name": "",
          "type": "address"
        }
      ],
      "name": "administradores",
      "outputs": [
        {
          "internalType": "string",
          "name": "nomeCompleto",
          "type": "string"
        },
        {
          "internalType": "string",
          "name": "cpf",
          "type": "string"
        },
        {
          "internalType": "string",
          "name": "cnpj",
          "type": "string"
        },
        {
          "internalType": "string",
          "name": "email",
          "type": "string"
        },
        {
          "internalType": "string",
          "name": "senhaHash",
          "type": "string"
        },
        {
          "internalType": "bool",
          "name": "ativo",
          "type": "bool"
        }
      ],
      "stateMutability": "view",
      "type": "function"
    },
    {
      "inputs": [
        {
          "internalType": "string",
          "name": "",
          "type": "string"
        }
      ],
      "name": "medicamentos",
      "outputs": [
        {
          "internalType": "string",
          "name": "nomeComercial",
          "type": "string"
        },
        {
          "internalType": "string",
          "name": "nomeGenerico",
          "type": "string"
        },
        {
          "internalType": "string",
          "name": "caracteristicas",
          "type": "string"
        },
        {
          "internalType": "string",
          "name": "codigoProduto",
          "type": "string"
        },
        {
          "internalType": "string",
          "name": "lote",
          "type": "string"
        },
        {
          "internalType": "uint256",
          "name": "dataFabricacao",
          "type": "uint256"
        },
        {
          "internalType": "uint256",
          "name": "dataValidade",
          "type": "uint256"
        },
        {
          "components": [
            {
              "internalType": "string",
              "name": "nomeFabricante",
              "type": "string"
            },
            {
              "internalType": "string",
              "name": "nomeComercial",
              "type": "string"
            },
            {
              "internalType": "string",
              "name": "cnpj",
              "type": "string"
            }
          ],
          "internalType": "struct RastreamentoMedicamentos.Fabricante",
          "name": "fabricante",
          "type": "tuple"
        }
      ],
      "stateMutability": "view",
      "type": "function"
    },
    {
      "inputs": [],
      "name": "owner",
      "outputs": [
        {
          "internalType": "address",
          "name": "",
          "type": "address"
        }
      ],
      "stateMutability": "view",
      "type": "function"
    },
    {
      "inputs": [
        {
          "internalType": "string",
          "name": "",
          "type": "string"
        }
      ],
      "name": "rastreamentos",
      "outputs": [
        {
          "internalType": "string",
          "name": "codigoRastreamento",
          "type": "string"
        },
        {
          "internalType": "string",
          "name": "localizacaoAtual",
          "type": "string"
        },
        {
          "internalType": "uint256",
          "name": "dataCriacao",
          "type": "uint256"
        },
        {
          "internalType": "string",
          "name": "pontoDestino",
          "type": "string"
        },
        {
          "internalType": "string",
          "name": "status",
          "type": "string"
        }
      ],
      "stateMutability": "view",
      "type": "function"
    },
    {
      "inputs": [
        {
          "internalType": "address",
          "name": "_adminAddress",
          "type": "address"
        },
        {
          "internalType": "string",
          "name": "_nomeCompleto",
          "type": "string"
        },
        {
          "internalType": "string",
          "name": "_cpf",
          "type": "string"
        },
        {
          "internalType": "string",
          "name": "_cnpj",
          "type": "string"
        },
        {
          "internalType": "string",
          "name": "_email",
          "type": "string"
        },
        {
          "internalType": "string",
          "name": "_senhaHash",
          "type": "string"
        }
      ],
      "name": "cadastrarAdministrador",
      "outputs": [],
      "stateMutability": "nonpayable",
      "type": "function"
    },
    {
      "inputs": [
        {
          "internalType": "string",
          "name": "_cpf",
          "type": "string"
        },
        {
          "internalType": "string",
          "name": "_cnpj",
          "type": "string"
        },
        {
          "internalType": "string",
          "name": "_senhaHash",
          "type": "string"
        }
      ],
      "name": "loginAdministrador",
      "outputs": [
        {
          "internalType": "bool",
          "name": "",
          "type": "bool"
        }
      ],
      "stateMutability": "view",
      "type": "function"
    },
    {
      "inputs": [
        {
          "internalType": "string",
          "name": "_nomeComercial",
          "type": "string"
        },
        {
          "internalType": "string",
          "name": "_nomeGenerico",
          "type": "string"
        },
        {
          "internalType": "string",
          "name": "_caracteristicas",
          "type": "string"
        },
        {
          "internalType": "string",
          "name": "_codigoProduto",
          "type": "string"
        },
        {
          "internalType": "string",
          "name": "_lote",
          "type": "string"
        },
        {
          "internalType": "uint256",
          "name": "_dataFabricacao",
          "type": "uint256"
        },
        {
          "internalType": "uint256",
          "name": "_dataValidade",
          "type": "uint256"
        },
        {
          "internalType": "string",
          "name": "_nomeFabricante",
          "type": "string"
        },
        {
          "internalType": "string",
          "name": "_nomeComercialFabricante",
          "type": "string"
        },
        {
          "internalType": "string",
          "name": "_cnpjFabricante",
          "type": "string"
        }
      ],
      "name": "cadastrarMedicamento",
      "outputs": [],
      "stateMutability": "nonpayable",
      "type": "function"
    },
    {
      "inputs": [
        {
          "internalType": "string",
          "name": "_codigoRastreamento",
          "type": "string"
        },
        {
          "internalType": "string",
          "name": "_localizacaoAtual",
          "type": "string"
        },
        {
          "internalType": "string",
          "name": "_pontoDestino",
          "type": "string"
        },
        {
          "internalType": "string",
          "name": "_status",
          "type": "string"
        }
      ],
      "name": "atualizarRastreamento",
      "outputs": [],
      "stateMutability": "nonpayable",
      "type": "function"
    },
    {
      "inputs": [
        {
          "internalType": "string",
          "name": "_codigoRastreamento",
          "type": "string"
        }
      ],
      "name": "consultarRastreamento",
      "outputs": [
        {
          "internalType": "string",
          "name": "localizacaoAtual",
          "type": "string"
        },
        {
          "internalType": "uint256",
          "name": "dataCriacao",
          "type": "uint256"
        },
        {
          "internalType": "string",
          "name": "pontoDestino",
          "type": "string"
        },
        {
          "internalType": "string",
          "name": "status",
          "type": "string"
        }
      ],
      "stateMutability": "view",
      "type": "function"
    }
  ],
  "bytecode": "0x608060405234801561001057600080fd5b5033600360006101000a81548173ffffffffffffffffffffffffffffffffffffffff021916908373ffffffffffffffffffffffffffffffffffffffff160217905550612a81806100616000396000f3fe608060405234801561001057600080fd5b50600436106100935760003560e01c80635e6e16cb116100665780635e6e16cb14610137578063864e9c801461016e5780638da5cb5b1461018a578063a31f1b17146101a8578063d449dc54146101d857610093565b80633514970a146100985780633c63c189146100b457806351ab4f5f146100e75780635bf4808a1461011b575b600080fd5b6100b260048036038101906100ad9190611cb1565b61020d565b005b6100ce60048036038101906100c99190611d88565b6103b2565b6040516100de9493929190611e72565b60405180910390f35b61010160048036038101906100fc9190611d88565b6106a0565b604051610112959493929190611ecc565b60405180910390f35b61013560048036038101906101309190611f67565b61090c565b005b610151600480360381019061014c9190611d88565b610c15565b6040516101659897969594939291906121ce565b60405180910390f35b610188600480360381019061018391906122d4565b6110db565b005b610192611372565b60405161019f91906123fc565b60405180910390f35b6101c260048036038101906101bd9190612417565b611398565b6040516101cf91906124d9565b60405180910390f35b6101f260048036038101906101ed91906124f4565b6117c3565b60405161020496959493929190612521565b60405180910390f35b6000803373ffffffffffffffffffffffffffffffffffffffff1673ffffffffffffffffffffffffffffffffffffffff16815260200190815260200160002060050160009054906101000a900460ff1661029b576040517f08c379a000000000000000000000000000000000000000000000000000000000815260040161029290612617565b60405180910390fd5b60008451116102df576040517f08c379a00000000000000000000000000000000000000000000000000000000081526004016102d690612683565b60405180910390fd5b60006002856040516102f191906126df565b9081526020016040518091039020905084816000019080519060200190610319929190611ab4565b5083816001019080519060200190610332929190611ab4565b508281600301908051906020019061034b929190611ab4565b5081816004019080519060200190610364929190611ab4565b504281600201819055507f3c943f335a27bfc5ac76eb8cd332f9bc0170bee2ec06a32c2432c0ed922b049e858386426040516103a394939291906126f6565b60405180910390a15050505050565b6060600060608060008551116103fd576040517f08c379a00000000000000000000000000000000000000000000000000000000081526004016103f490612683565b60405180910390fd5b600060028660405161040f91906126df565b90815260200160405180910390206040518060a00160405290816000820180546104389061277f565b80601f01602080910402602001604051908101604052809291908181526020018280546104649061277f565b80156104b15780601f10610486576101008083540402835291602001916104b1565b820191906000526020600020905b81548152906001019060200180831161049457829003601f168201915b505050505081526020016001820180546104ca9061277f565b80601f01602080910402602001604051908101604052809291908181526020018280546104f69061277f565b80156105435780601f1061051857610100808354040283529160200191610543565b820191906000526020600020905b81548152906001019060200180831161052657829003601f168201915b50505050508152602001600282015481526020016003820180546105669061277f565b80601f01602080910402602001604051908101604052809291908181526020018280546105929061277f565b80156105df5780601f106105b4576101008083540402835291602001916105df565b820191906000526020600020905b8154815290600101906020018083116105c257829003601f168201915b505050505081526020016004820180546105f89061277f565b80601f01602080910402602001604051908101604052809291908181526020018280546106249061277f565b80156106715780601f1061064657610100808354040283529160200191610671565b820191906000526020600020905b81548152906001019060200180831161065457829003601f168201915b505050505081525050905080602001518160400151826060015183608001519450945094509450509193509193565b6002818051602081018201805184825260208301602085012081835280955050505050506000915090508060000180546106d99061277f565b80601f01602080910402602001604051908101604052809291908181526020018280546107059061277f565b80156107525780601f1061072757610100808354040283529160200191610752565b820191906000526020600020905b81548152906001019060200180831161073557829003601f168201915b5050505050908060010180546107679061277f565b80601f01602080910402602001604051908101604052809291908181526020018280546107939061277f565b80156107e05780601f106107b5576101008083540402835291602001916107e0565b820191906000526020600020905b8154815290600101906020018083116107c357829003601f168201915b5050505050908060020154908060030180546107fb9061277f565b80601f01602080910402602001604051908101604052809291908181526020018280546108279061277f565b80156108745780601f1061084957610100808354040283529160200191610874565b820191906000526020600020905b81548152906001019060200180831161085757829003601f168201915b5050505050908060040180546108899061277f565b80601f01602080910402602001604051908101604052809291908181526020018280546108b59061277f565b80156109025780601f106108d757610100808354040283529160200191610902565b820191906000526020600020905b8154815290600101906020018083116108e557829003601f168201915b5050505050905085565b6000803373ffffffffffffffffffffffffffffffffffffffff1673ffffffffffffffffffffffffffffffffffffffff16815260200190815260200160002060050160009054906101000a900460ff1661099a576040517f08c379a000000000000000000000000000000000000000000000000000000000815260040161099190612617565b60405180910390fd5b60008751116109de576040517f08c379a00000000000000000000000000000000000000000000000000000000081526004016109d5906127fc565b60405180910390fd5b60006001886040516109f091906126df565b90815260200160405180910390206003018054610a0c9061277f565b905014610a4e576040517f08c379a0000000000000000000000000000000000000000000000000000000008152600401610a4590612868565b60405180910390fd5b600060405180606001604052808581526020018481526020018381525090506040518061010001604052808c81526020018b81526020018a815260200189815260200188815260200187815260200186815260200182815250600189604051610ab791906126df565b90815260200160405180910390206000820151816000019080519060200190610ae1929190611ab4565b506020820151816001019080519060200190610afe929190611ab4565b506040820151816002019080519060200190610b1b929190611ab4565b506060820151816003019080519060200190610b38929190611ab4565b506080820151816004019080519060200190610b55929190611ab4565b5060a0820151816005015560c0820151816006015560e0820151816007016000820151816000019080519060200190610b8f929190611ab4565b506020820151816001019080519060200190610bac929190611ab4565b506040820151816002019080519060200190610bc9929190611ab4565b5050509050507f37138d69b6793441bbe656aa862221e3ac02ed467ca5e7b255bd2b6cd8fccbab888c604051610c00929190612888565b60405180910390a15050505050505050505050565b600181805160208101820180518482526020830160208501208183528095505050505050600091509050806000018054610c4e9061277f565b80601f0160208091040260200160405190810160405280929190818152602001828054610c7a9061277f565b8015610cc75780601f10610c9c57610100808354040283529160200191610cc7565b820191906000526020600020905b815481529060010190602001808311610caa57829003601f168201915b505050505090806001018054610cdc9061277f565b80601f0160208091040260200160405190810160405280929190818152602001828054610d089061277f565b8015610d555780601f10610d2a57610100808354040283529160200191610d55565b820191906000526020600020905b815481529060010190602001808311610d3857829003601f168201915b505050505090806002018054610d6a9061277f565b80601f0160208091040260200160405190810160405280929190818152602001828054610d969061277f565b8015610de35780601f10610db857610100808354040283529160200191610de3565b820191906000526020600020905b815481529060010190602001808311610dc657829003601f168201915b505050505090806003018054610df89061277f565b80601f0160208091040260200160405190810160405280929190818152602001828054610e249061277f565b8015610e715780601f10610e4657610100808354040283529160200191610e71565b820191906000526020600020905b815481529060010190602001808311610e5457829003601f168201915b505050505090806004018054610e869061277f565b80601f0160208091040260200160405190810160405280929190818152602001828054610eb29061277f565b8015610eff5780601f10610ed457610100808354040283529160200191610eff565b820191906000526020600020905b815481529060010190602001808311610ee257829003601f168201915b50505050509080600501549080600601549080600701604051806060016040529081600082018054610f309061277f565b80601f0160208091040260200160405190810160405280929190818152602001828054610f5c9061277f565b8015610fa95780601f10610f7e57610100808354040283529160200191610fa9565b820191906000526020600020905b815481529060010190602001808311610f8c57829003601f168201915b50505050508152602001600182018054610fc29061277f565b80601f0160208091040260200160405190810160405280929190818152602001828054610fee9061277f565b801561103b5780601f106110105761010080835404028352916020019161103b565b820191906000526020600020905b81548152906001019060200180831161101e57829003601f168201915b505050505081526020016002820180546110549061277f565b80601f01602080910402602001604051908101604052809291908181526020018280546110809061277f565b80156110cd5780601f106110a2576101008083540402835291602001916110cd565b820191906000526020600020905b8154815290600101906020018083116110b057829003601f168201915b505050505081525050905088565b600360009054906101000a900473ffffffffffffffffffffffffffffffffffffffff1673ffffffffffffffffffffffffffffffffffffffff163373ffffffffffffffffffffffffffffffffffffffff161461116b576040517f08c379a000000000000000000000000000000000000000000000000000000000815260040161116290612931565b60405180910390fd5b6000808773ffffffffffffffffffffffffffffffffffffffff1673ffffffffffffffffffffffffffffffffffffffff16815260200190815260200160002060050160009054906101000a900460ff16156111fa576040517f08c379a00000000000000000000000000000000000000000000000000000000081526004016111f19061299d565b60405180910390fd5b6040518060c00160405280868152602001858152602001848152602001838152602001828152602001600115158152506000808873ffffffffffffffffffffffffffffffffffffffff1673ffffffffffffffffffffffffffffffffffffffff1681526020019081526020016000206000820151816000019080519060200190611284929190611ab4565b5060208201518160010190805190602001906112a1929190611ab4565b5060408201518160020190805190602001906112be929190611ab4565b5060608201518160030190805190602001906112db929190611ab4565b5060808201518160040190805190602001906112f8929190611ab4565b5060a08201518160050160006101000a81548160ff0219169083151502179055509050508573ffffffffffffffffffffffffffffffffffffffff167f9925e9de3388270fa6ade204ea16c7a221d6916aef70c7a95bcf8a66677747698660405161136291906129bd565b60405180910390a2505050505050565b600360009054906101000a900473ffffffffffffffffffffffffffffffffffffffff1681565b60008060003373ffffffffffffffffffffffffffffffffffffffff1673ffffffffffffffffffffffffffffffffffffffff16815260200190815260200160002060050160009054906101000a900460ff16611428576040517f08c379a000000000000000000000000000000000000000000000000000000000815260040161141f90612a2b565b60405180910390fd5b60008060003373ffffffffffffffffffffffffffffffffffffffff1673ffffffffffffffffffffffffffffffffffffffff1681526020019081526020016000206040518060c00160405290816000820180546114839061277f565b80601f01602080910402602001604051908101604052809291908181526020018280546114af9061277f565b80156114fc5780601f106114d1576101008083540402835291602001916114fc565b820191906000526020600020905b8154815290600101906020018083116114df57829003601f168201915b505050505081526020016001820180546115159061277f565b80601f01602080910402602001604051908101604052809291908181526020018280546115419061277f565b801561158e5780601f106115635761010080835404028352916020019161158e565b820191906000526020600020905b81548152906001019060200180831161157157829003601f168201915b505050505081526020016002820180546115a79061277f565b80601f01602080910402602001604051908101604052809291908181526020018280546115d39061277f565b80156116205780601f106115f557610100808354040283529160200191611620565b820191906000526020600020905b81548152906001019060200180831161160357829003601f168201915b505050505081526020016003820180546116399061277f565b80601f01602080910402602001604051908101604052809291908181526020018280546116659061277f565b80156116b25780601f10611687576101008083540402835291602001916116b2565b820191906000526020600020905b81548152906001019060200180831161169557829003601f168201915b505050505081526020016004820180546116cb9061277f565b80601f01602080910402602001604051908101604052809291908181526020018280546116f79061277f565b80156117445780601f1061171957610100808354040283529160200191611744565b820191906000526020600020905b81548152906001019060200180831161172757829003601f168201915b505050505081526020016005820160009054906101000a900460ff1615151515815250509050848051906020012081602001518051906020012014801561179c57508380519060200120816040015180519060200120145b80156117b957508280519060200120816080015180519060200120145b9150509392505050565b60006020528060005260406000206000915090508060000180546117e69061277f565b80601f01602080910402602001604051908101604052809291908181526020018280546118129061277f565b801561185f5780601f106118345761010080835404028352916020019161185f565b820191906000526020600020905b81548152906001019060200180831161184257829003601f168201915b5050505050908060010180546118749061277f565b80601f01602080910402602001604051908101604052809291908181526020018280546118a09061277f565b80156118ed5780601f106118c2576101008083540402835291602001916118ed565b820191906000526020600020905b8154815290600101906020018083116118d057829003601f168201915b5050505050908060020180546119029061277f565b80601f016020809104026020016040519081016040528092919081815260200182805461192e9061277f565b801561197b5780601f106119505761010080835404028352916020019161197b565b820191906000526020600020905b81548152906001019060200180831161195e57829003601f168201915b5050505050908060030180546119909061277f565b80601f01602080910402602001604051908101604052809291908181526020018280546119bc9061277f565b8015611a095780601f106119de57610100808354040283529160200191611a09565b820191906000526020600020905b8154815290600101906020018083116119ec57829003601f168201915b505050505090806004018054611a1e9061277f565b80601f0160208091040260200160405190810160405280929190818152602001828054611a4a9061277f565b8015611a975780601f10611a6c57610100808354040283529160200191611a97565b820191906000526020600020905b815481529060010190602001808311611a7a57829003601f168201915b5050505050908060050160009054906101000a900460ff16905086565b828054611ac09061277f565b90600052602060002090601f016020900481019282611ae25760008555611b29565b82601f10611afb57805160ff1916838001178555611b29565b82800160010185558215611b29579182015b82811115611b28578251825591602001919060010190611b0d565b5b509050611b369190611b3a565b5090565b5b80821115611b53576000816000905550600101611b3b565b5090565b6000604051905090565b600080fd5b600080fd5b600080fd5b600080fd5b6000601f19601f8301169050919050565b7f4e487b7100000000000000000000000000000000000000000000000000000000600052604160045260246000fd5b611bbe82611b75565b810181811067ffffffffffffffff82111715611bdd57611bdc611b86565b5b80604052505050565b6000611bf0611b57565b9050611bfc8282611bb5565b919050565b600067ffffffffffffffff821115611c1c57611c1b611b86565b5b611c2582611b75565b9050602081019050919050565b82818337600083830152505050565b6000611c54611c4f84611c01565b611be6565b905082815260208101848484011115611c7057611c6f611b70565b5b611c7b848285611c32565b509392505050565b600082601f830112611c9857611c97611b6b565b5b8135611ca8848260208601611c41565b91505092915050565b60008060008060808587031215611ccb57611cca611b61565b5b600085013567ffffffffffffffff811115611ce957611ce8611b66565b5b611cf587828801611c83565b945050602085013567ffffffffffffffff811115611d1657611d15611b66565b5b611d2287828801611c83565b935050604085013567ffffffffffffffff811115611d4357611d42611b66565b5b611d4f87828801611c83565b925050606085013567ffffffffffffffff811115611d7057611d6f611b66565b5b611d7c87828801611c83565b91505092959194509250565b600060208284031215611d9e57611d9d611b61565b5b600082013567ffffffffffffffff811115611dbc57611dbb611b66565b5b611dc884828501611c83565b91505092915050565b600081519050919050565b600082825260208201905092915050565b60005b83811015611e0b578082015181840152602081019050611df0565b83811115611e1a576000848401525b50505050565b6000611e2b82611dd1565b611e358185611ddc565b9350611e45818560208601611ded565b611e4e81611b75565b840191505092915050565b6000819050919050565b611e6c81611e59565b82525050565b60006080820190508181036000830152611e8c8187611e20565b9050611e9b6020830186611e63565b8181036040830152611ead8185611e20565b90508181036060830152611ec18184611e20565b905095945050505050565b600060a0820190508181036000830152611ee68188611e20565b90508181036020830152611efa8187611e20565b9050611f096040830186611e63565b8181036060830152611f1b8185611e20565b90508181036080830152611f2f8184611e20565b90509695505050505050565b611f4481611e59565b8114611f4f57600080fd5b50565b600081359050611f6181611f3b565b92915050565b6000806000806000806000806000806101408b8d031215611f8b57611f8a611b61565b5b60008b013567ffffffffffffffff811115611fa957611fa8611b66565b5b611fb58d828e01611c83565b9a505060208b013567ffffffffffffffff811115611fd657611fd5611b66565b5b611fe28d828e01611c83565b99505060408b013567ffffffffffffffff81111561200357612002611b66565b5b61200f8d828e01611c83565b98505060608b013567ffffffffffffffff8111156120305761202f611b66565b5b61203c8d828e01611c83565b97505060808b013567ffffffffffffffff81111561205d5761205c611b66565b5b6120698d828e01611c83565b96505060a061207a8d828e01611f52565b95505060c061208b8d828e01611f52565b94505060e08b013567ffffffffffffffff8111156120ac576120ab611b66565b5b6120b88d828e01611c83565b9350506101008b013567ffffffffffffffff8111156120da576120d9611b66565b5b6120e68d828e01611c83565b9250506101208b013567ffffffffffffffff81111561210857612107611b66565b5b6121148d828e01611c83565b9150509295989b9194979a5092959850565b600082825260208201905092915050565b600061214282611dd1565b61214c8185612126565b935061215c818560208601611ded565b61216581611b75565b840191505092915050565b6000606083016000830151848203600086015261218d8282612137565b915050602083015184820360208601526121a78282612137565b915050604083015184820360408601526121c18282612137565b9150508091505092915050565b60006101008201905081810360008301526121e9818b611e20565b905081810360208301526121fd818a611e20565b905081810360408301526122118189611e20565b905081810360608301526122258188611e20565b905081810360808301526122398187611e20565b905061224860a0830186611e63565b61225560c0830185611e63565b81810360e08301526122678184612170565b90509998505050505050505050565b600073ffffffffffffffffffffffffffffffffffffffff82169050919050565b60006122a182612276565b9050919050565b6122b181612296565b81146122bc57600080fd5b50565b6000813590506122ce816122a8565b92915050565b60008060008060008060c087890312156122f1576122f0611b61565b5b60006122ff89828a016122bf565b965050602087013567ffffffffffffffff8111156123205761231f611b66565b5b61232c89828a01611c83565b955050604087013567ffffffffffffffff81111561234d5761234c611b66565b5b61235989828a01611c83565b945050606087013567ffffffffffffffff81111561237a57612379611b66565b5b61238689828a01611c83565b935050608087013567ffffffffffffffff8111156123a7576123a6611b66565b5b6123b389828a01611c83565b92505060a087013567ffffffffffffffff8111156123d4576123d3611b66565b5b6123e089828a01611c83565b9150509295509295509295565b6123f681612296565b82525050565b600060208201905061241160008301846123ed565b92915050565b6000806000606084860312156124305761242f611b61565b5b600084013567ffffffffffffffff81111561244e5761244d611b66565b5b61245a86828701611c83565b935050602084013567ffffffffffffffff81111561247b5761247a611b66565b5b61248786828701611c83565b925050604084013567ffffffffffffffff8111156124a8576124a7611b66565b5b6124b486828701611c83565b9150509250925092565b60008115159050919050565b6124d3816124be565b82525050565b60006020820190506124ee60008301846124ca565b92915050565b60006020828403121561250a57612509611b61565b5b6000612518848285016122bf565b91505092915050565b600060c082019050818103600083015261253b8189611e20565b9050818103602083015261254f8188611e20565b905081810360408301526125638187611e20565b905081810360608301526125778186611e20565b9050818103608083015261258b8185611e20565b905061259a60a08301846124ca565b979650505050505050565b7f4170656e61732061646d696e6973747261646f72657320706f64656d2065786560008201527f63757461722065737461206163616f0000000000000000000000000000000000602082015250565b6000612601602f83611ddc565b915061260c826125a5565b604082019050919050565b60006020820190508181036000830152612630816125f4565b9050919050565b7f436f6469676f20646520726173747265616d656e746f20696e76616c69646f00600082015250565b600061266d601f83611ddc565b915061267882612637565b602082019050919050565b6000602082019050818103600083015261269c81612660565b9050919050565b600081905092915050565b60006126b982611dd1565b6126c381856126a3565b93506126d3818560208601611ded565b80840191505092915050565b60006126eb82846126ae565b915081905092915050565b600060808201905081810360008301526127108187611e20565b905081810360208301526127248186611e20565b905081810360408301526127388185611e20565b90506127476060830184611e63565b95945050505050565b7f4e487b7100000000000000000000000000000000000000000000000000000000600052602260045260246000fd5b6000600282049050600182168061279757607f821691505b6020821081036127aa576127a9612750565b5b50919050565b7f436f6469676f20646f2070726f6475746f20696e76616c69646f000000000000600082015250565b60006127e6601a83611ddc565b91506127f1826127b0565b602082019050919050565b60006020820190508181036000830152612815816127d9565b9050919050565b7f4d65646963616d656e746f206a61206361646173747261646f00000000000000600082015250565b6000612852601983611ddc565b915061285d8261281c565b602082019050919050565b6000602082019050818103600083015261288181612845565b9050919050565b600060408201905081810360008301526128a28185611e20565b905081810360208301526128b68184611e20565b90509392505050565b7f4170656e6173206f2070726f70726965746172696f20706f646520657865637560008201527f7461722065737461206163616f00000000000000000000000000000000000000602082015250565b600061291b602d83611ddc565b9150612926826128bf565b604082019050919050565b6000602082019050818103600083015261294a8161290e565b9050919050565b7f41646d696e6973747261646f72206a61206361646173747261646f0000000000600082015250565b6000612987601b83611ddc565b915061299282612951565b602082019050919050565b600060208201905081810360008301526129b68161297a565b9050919050565b600060208201905081810360008301526129d78184611e20565b905092915050565b7f41646d696e6973747261646f72206e616f20656e636f6e747261646f00000000600082015250565b6000612a15601c83611ddc565b9150612a20826129df565b602082019050919050565b60006020820190508181036000830152612a4481612a08565b905091905056fea26469706673582212203a602760e38618882b5d00acb6ac927434c2908b6b1a9a9f685f971fd5a8ed5964736f6c634300080e0033",
  "immutableReferences": {},
  "source": "// SPDX-License-Identifier: MIT\npragma solidity 0.8.14;\n\ncontract RastreamentoMedicamentos {\n    struct Administrador {\n        string nomeCompleto;\n        string cpf;\n        string cnpj;\n        string email;\n        string senhaHash;\n        bool ativo;\n    }\n\n    struct Medicamento {\n        string nomeComercial;\n        string nomeGenerico;\n        string caracteristicas;\n        string codigoProduto;\n        string lote;\n        uint dataFabricacao;\n        uint dataValidade;\n        Fabricante fabricante;\n    }\n\n    struct Fabricante {\n        string nomeFabricante;\n        string nomeComercial;\n        string cnpj;\n    }\n\n    struct Rastreamento {\n        string codigoRastreamento;\n        string localizacaoAtual;\n        uint dataCriacao;\n        string pontoDestino;\n        string status; // \"Postado\", \"Em trnsito\", \"Entregue\"\n    }\n\n    mapping(address => Administrador) public administradores;\n    mapping(string => Medicamento) public medicamentos;\n    mapping(string => Rastreamento) public rastreamentos;\n\n    address public owner;\n\n    event AdministradorCadastrado(address indexed adminAddress, string nomeCompleto);\n    event MedicamentoCadastrado(string codigoProduto, string nomeComercial);\n    event RastreamentoAtualizado(string codigoRastreamento, string status, string localizacao, uint timestamp);\n\n    modifier somenteProprietario() {\n        require(msg.sender == owner, \"Apenas o proprietario pode executar esta acao\");\n        _;\n    }\n\n    modifier somenteAdministrador() {\n        require(administradores[msg.sender].ativo, \"Apenas administradores podem executar esta acao\");\n        _;\n    }\n\n    constructor() {\n        owner = msg.sender;\n    }\n\n    // Funo para cadastrar administradores\n    function cadastrarAdministrador(\n        address _adminAddress,\n        string memory _nomeCompleto,\n        string memory _cpf,\n        string memory _cnpj,\n        string memory _email,\n        string memory _senhaHash\n    ) public somenteProprietario {\n        require(!administradores[_adminAddress].ativo, \"Administrador ja cadastrado\");\n\n        administradores[_adminAddress] = Administrador({\n            nomeCompleto: _nomeCompleto,\n            cpf: _cpf,\n            cnpj: _cnpj,\n            email: _email,\n            senhaHash: _senhaHash,\n            ativo: true\n        });\n\n        emit AdministradorCadastrado(_adminAddress, _nomeCompleto);\n    }\n\n    // Funo para login do administrador\n    function loginAdministrador(string memory _cpf, string memory _cnpj, string memory _senhaHash)\n        public\n        view\n        returns (bool)\n    {\n        require(administradores[msg.sender].ativo, \"Administrador nao encontrado\");\n        Administrador memory admin = administradores[msg.sender];\n        return (\n            keccak256(bytes(admin.cpf)) == keccak256(bytes(_cpf)) &&\n            keccak256(bytes(admin.cnpj)) == keccak256(bytes(_cnpj)) &&\n            keccak256(bytes(admin.senhaHash)) == keccak256(bytes(_senhaHash))\n        );\n    }\n\n    // Funo para cadastrar medicamentos\n    function cadastrarMedicamento(\n        string memory _nomeComercial,\n        string memory _nomeGenerico,\n        string memory _caracteristicas,\n        string memory _codigoProduto,\n        string memory _lote,\n        uint _dataFabricacao,\n        uint _dataValidade,\n        string memory _nomeFabricante,\n        string memory _nomeComercialFabricante,\n        string memory _cnpjFabricante\n    ) public somenteAdministrador {\n        require(bytes(_codigoProduto).length > 0, \"Codigo do produto invalido\");\n        require(bytes(medicamentos[_codigoProduto].codigoProduto).length == 0, \"Medicamento ja cadastrado\");\n\n        Fabricante memory fabricante = Fabricante({\n            nomeFabricante: _nomeFabricante,\n            nomeComercial: _nomeComercialFabricante,\n            cnpj: _cnpjFabricante\n        });\n\n        medicamentos[_codigoProduto] = Medicamento({\n            nomeComercial: _nomeComercial,\n            nomeGenerico: _nomeGenerico,\n            caracteristicas: _caracteristicas,\n            codigoProduto: _codigoProduto,\n            lote: _lote,\n            dataFabricacao: _dataFabricacao,\n            dataValidade: _dataValidade,\n            fabricante: fabricante\n        });\n\n        emit MedicamentoCadastrado(_codigoProduto, _nomeComercial);\n    }\n\n    // Funo para atualizar rastreamento\n    function atualizarRastreamento(\n        string memory _codigoRastreamento,\n        string memory _localizacaoAtual,\n        string memory _pontoDestino,\n        string memory _status\n    ) public somenteAdministrador {\n        require(bytes(_codigoRastreamento).length > 0, \"Codigo de rastreamento invalido\");\n\n        Rastreamento storage rastreamento = rastreamentos[_codigoRastreamento];\n\n        rastreamento.codigoRastreamento = _codigoRastreamento;\n        rastreamento.localizacaoAtual = _localizacaoAtual;\n        rastreamento.pontoDestino = _pontoDestino;\n        rastreamento.status = _status;\n        rastreamento.dataCriacao = block.timestamp;\n\n        emit RastreamentoAtualizado(_codigoRastreamento, _status, _localizacaoAtual, block.timestamp);\n    }\n\n    // Funo para consultar rastreamento\n    function consultarRastreamento(string memory _codigoRastreamento)\n        public\n        view\n        returns (\n            string memory localizacaoAtual,\n            uint dataCriacao,\n            string memory pontoDestino,\n            string memory status\n        )\n    {\n        require(bytes(_codigoRastreamento).length > 0, \"Codigo de rastreamento invalido\");\n\n        Rastreamento memory rastreamento = rastreamentos[_codigoRastreamento];\n        return (rastreamento.localizacaoAtual, rastreamento.dataCriacao, rastreamento.pontoDestino, rastreamento.status);\n    }\n}",
  "sourcePath": "C:\\Users\\Maria Dalva\\RastreamentoMedicamentos\\contracts\\RatreamentoMedicamentos.sol",
  "compiler": {
    "name": "solc",
    "version": "0.8.14+commit.80d49f37.Emscripten.clang"
  },
  "schemaVersion": "3.4.16",
  "updatedAt": "2025-01-03T14:20:18.233Z",
  "devdoc": {
    "kind": "dev",
    "methods": {},
    "version": 1
  },
  "userdoc": {
    "kind": "user",
    "methods": {},
    "version": 1
  }
}